{
  "_format": "hh-sol-artifact-1",
  "contractName": "FlashLoan",
  "sourceName": "contracts/FlashLoan.sol",
  "abi": [
    {
      "inputs": [
        {
          "internalType": "address",
          "name": "_addressProvider",
          "type": "address"
        }
      ],
      "stateMutability": "nonpayable",
      "type": "constructor"
    },
    {
      "inputs": [],
      "name": "ReentrancyGuardReentrantCall",
      "type": "error"
    },
    {
      "inputs": [],
      "name": "ADDRESSES_PROVIDER",
      "outputs": [
        {
          "internalType": "contract IPoolAddressesProvider",
          "name": "",
          "type": "address"
        }
      ],
      "stateMutability": "view",
      "type": "function"
    },
    {
      "inputs": [],
      "name": "POOL",
      "outputs": [
        {
          "internalType": "contract IPool",
          "name": "",
          "type": "address"
        }
      ],
      "stateMutability": "view",
      "type": "function"
    },
    {
      "inputs": [
        {
          "internalType": "address",
          "name": "asset",
          "type": "address"
        },
        {
          "internalType": "uint256",
          "name": "amount",
          "type": "uint256"
        },
        {
          "internalType": "uint256",
          "name": "premium",
          "type": "uint256"
        },
        {
          "internalType": "address",
          "name": "initiator",
          "type": "address"
        },
        {
          "internalType": "bytes",
          "name": "params",
          "type": "bytes"
        }
      ],
      "name": "executeOperation",
      "outputs": [
        {
          "internalType": "bool",
          "name": "",
          "type": "bool"
        }
      ],
      "stateMutability": "nonpayable",
      "type": "function"
    },
    {
      "inputs": [],
      "name": "owner",
      "outputs": [
        {
          "internalType": "address payable",
          "name": "",
          "type": "address"
        }
      ],
      "stateMutability": "view",
      "type": "function"
    },
    {
      "inputs": [
        {
          "internalType": "uint256",
          "name": "_amount",
          "type": "uint256"
        }
      ],
      "name": "requestFlashLoan",
      "outputs": [],
      "stateMutability": "nonpayable",
      "type": "function"
    },
    {
      "stateMutability": "payable",
      "type": "receive"
    }
  ],
  "bytecode": "0x60c060405234801561001057600080fd5b50604051610de8380380610de8833981810160405281019061003291906101bc565b808073ffffffffffffffffffffffffffffffffffffffff1660808173ffffffffffffffffffffffffffffffffffffffff16815250508073ffffffffffffffffffffffffffffffffffffffff1663026b1d5f6040518163ffffffff1660e01b8152600401602060405180830381865afa1580156100b2573d6000803e3d6000fd5b505050506040513d601f19601f820116820180604052508101906100d691906101bc565b73ffffffffffffffffffffffffffffffffffffffff1660a08173ffffffffffffffffffffffffffffffffffffffff168152505050600160008190555033600160006101000a81548173ffffffffffffffffffffffffffffffffffffffff021916908373ffffffffffffffffffffffffffffffffffffffff160217905550506101e9565b600080fd5b600073ffffffffffffffffffffffffffffffffffffffff82169050919050565b60006101898261015e565b9050919050565b6101998161017e565b81146101a457600080fd5b50565b6000815190506101b681610190565b92915050565b6000602082840312156101d2576101d1610159565b5b60006101e0848285016101a7565b91505092915050565b60805160a051610bcc61021c60003960008181610355015281816103f20152610464015260006101430152610bcc6000f3fe60806040526004361061004e5760003560e01c80630542975c1461005a5780631b11d0ff146100855780637535d246146100c25780638da5cb5b146100ed578063a87eba3c1461011857610055565b3661005557005b600080fd5b34801561006657600080fd5b5061006f610141565b60405161007c91906105d3565b60405180910390f35b34801561009157600080fd5b506100ac60048036038101906100a791906106d1565b610165565b6040516100b99190610786565b60405180910390f35b3480156100ce57600080fd5b506100d76103f0565b6040516100e491906107c2565b60405180910390f35b3480156100f957600080fd5b50610102610414565b60405161010f91906107fe565b60405180910390f35b34801561012457600080fd5b5061013f600480360381019061013a9190610819565b61043a565b005b7f000000000000000000000000000000000000000000000000000000000000000081565b600061016f610504565b3373ffffffffffffffffffffffffffffffffffffffff168773ffffffffffffffffffffffffffffffffffffffff16146101dd576040517f08c379a00000000000000000000000000000000000000000000000000000000081526004016101d4906108a3565b60405180910390fd5b6000339050600087905060008973ffffffffffffffffffffffffffffffffffffffff166370a08231306040518263ffffffff1660e01b815260040161022291906108d2565b602060405180830381865afa15801561023f573d6000803e3d6000fd5b505050506040513d601f19601f820116820180604052508101906102639190610902565b9050818110156102a8576040517f08c379a000000000000000000000000000000000000000000000000000000000815260040161029f9061097b565b60405180910390fd5b8973ffffffffffffffffffffffffffffffffffffffff1663a9059cbb84846040518363ffffffff1660e01b81526004016102e39291906109aa565b6020604051808303816000875af1158015610302573d6000803e3d6000fd5b505050506040513d601f19601f8201168201806040525081019061032691906109ff565b506000888a6103359190610a5b565b90508a73ffffffffffffffffffffffffffffffffffffffff1663095ea7b37f0000000000000000000000000000000000000000000000000000000000000000836040518363ffffffff1660e01b81526004016103929291906109aa565b6020604051808303816000875af11580156103b1573d6000803e3d6000fd5b505050506040513d601f19601f820116820180604052508101906103d591906109ff565b5060019450505050506103e661054a565b9695505050505050565b7f000000000000000000000000000000000000000000000000000000000000000081565b600160009054906101000a900473ffffffffffffffffffffffffffffffffffffffff1681565b610442610504565b60003090506000339050600060405180602001604052806000815250905060007f000000000000000000000000000000000000000000000000000000000000000073ffffffffffffffffffffffffffffffffffffffff166342b0b77c85858886866040518663ffffffff1660e01b81526004016104c3959493929190610b3c565b600060405180830381600087803b1580156104dd57600080fd5b505af11580156104f1573d6000803e3d6000fd5b505050505050505061050161054a565b50565b600260005403610540576040517f3ee5aeb500000000000000000000000000000000000000000000000000000000815260040160405180910390fd5b6002600081905550565b6001600081905550565b600073ffffffffffffffffffffffffffffffffffffffff82169050919050565b6000819050919050565b600061059961059461058f84610554565b610574565b610554565b9050919050565b60006105ab8261057e565b9050919050565b60006105bd826105a0565b9050919050565b6105cd816105b2565b82525050565b60006020820190506105e860008301846105c4565b92915050565b600080fd5b600080fd5b600061060382610554565b9050919050565b610613816105f8565b811461061e57600080fd5b50565b6000813590506106308161060a565b92915050565b6000819050919050565b61064981610636565b811461065457600080fd5b50565b60008135905061066681610640565b92915050565b600080fd5b600080fd5b600080fd5b60008083601f8401126106915761069061066c565b5b8235905067ffffffffffffffff8111156106ae576106ad610671565b5b6020830191508360018202830111156106ca576106c9610676565b5b9250929050565b60008060008060008060a087890312156106ee576106ed6105ee565b5b60006106fc89828a01610621565b965050602061070d89828a01610657565b955050604061071e89828a01610657565b945050606061072f89828a01610621565b935050608087013567ffffffffffffffff8111156107505761074f6105f3565b5b61075c89828a0161067b565b92509250509295509295509295565b60008115159050919050565b6107808161076b565b82525050565b600060208201905061079b6000830184610777565b92915050565b60006107ac826105a0565b9050919050565b6107bc816107a1565b82525050565b60006020820190506107d760008301846107b3565b92915050565b60006107e882610554565b9050919050565b6107f8816107dd565b82525050565b600060208201905061081360008301846107ef565b92915050565b60006020828403121561082f5761082e6105ee565b5b600061083d84828501610657565b91505092915050565b600082825260208201905092915050565b7f496e76616c696420617373657400000000000000000000000000000000000000600082015250565b600061088d600d83610846565b915061089882610857565b602082019050919050565b600060208201905081810360008301526108bc81610880565b9050919050565b6108cc816105f8565b82525050565b60006020820190506108e760008301846108c3565b92915050565b6000815190506108fc81610640565b92915050565b600060208284031215610918576109176105ee565b5b6000610926848285016108ed565b91505092915050565b7f496e73756666696369656e742062616c616e6365000000000000000000000000600082015250565b6000610965601483610846565b91506109708261092f565b602082019050919050565b6000602082019050818103600083015261099481610958565b9050919050565b6109a481610636565b82525050565b60006040820190506109bf60008301856108c3565b6109cc602083018461099b565b9392505050565b6109dc8161076b565b81146109e757600080fd5b50565b6000815190506109f9816109d3565b92915050565b600060208284031215610a1557610a146105ee565b5b6000610a23848285016109ea565b91505092915050565b7f4e487b7100000000000000000000000000000000000000000000000000000000600052601160045260246000fd5b6000610a6682610636565b9150610a7183610636565b9250828201905080821115610a8957610a88610a2c565b5b92915050565b600081519050919050565b600082825260208201905092915050565b60005b83811015610ac9578082015181840152602081019050610aae565b60008484015250505050565b6000601f19601f8301169050919050565b6000610af182610a8f565b610afb8185610a9a565b9350610b0b818560208601610aab565b610b1481610ad5565b840191505092915050565b600061ffff82169050919050565b610b3681610b1f565b82525050565b600060a082019050610b5160008301886108c3565b610b5e60208301876108c3565b610b6b604083018661099b565b8181036060830152610b7d8185610ae6565b9050610b8c6080830184610b2d565b969550505050505056fea2646970667358221220bcaef58a860aefb25210987435655bd5d078cf59f9aa4012632e01a348b44fb964736f6c63430008180033",
  "linkReferences": {},
  "deployedLinkReferences": {}
}